:1008F00000A8C0003F065B4F666D7D077F6F000854
:0E09000040014148BF86DBCFE6EDFD87FFEFEB
:10092900E522600625E0F5228003752201AF220247
:0209390009674C
:10089B0012090E7D07E4FF12094C75250475260518
:1008AB007527067528077529087B037D027F0112C2
:1008BB0008D07BFF7A0979297F0212067112096D24
:0508CB0012085D80FB36
:1002AB00E4F580900079E0FFB40800505F9002BF46
:1002BB00F82828730202D70202DD0202E30202E9E8
:1002CB000202EF0202F902030302030DC2A3C2A250
:1002DB008016C2A3C2A2801AC2A3C2A2801EC2A34E
:1002EB00C2A28022C2A3D2A2C2A1C2A08020C2A35A
:1002FB00D2A2C2A1D2A08016C2A3D2A2D2A1C2A066
:10030B00800CC2A3D2A2D2A1D2A08002D2A3C3EFEF
:10031B00648094885029900079E0FF3395E0FE7457
:10032B00702FF58274003EF583E0FF3395E0FE7489
:10033B00F42FF58274083EF583E493F580801E90CC
:10034B000079E0FFB408133395E0FE74702FF5824B
:10035B0074003EF583E0F5808003E4F58090006F38
:10036B00E0FF900079E004FEF0D3EF6480F8EE64D8
:10037B0080984014E0D36480948850047408F02271
:09038B0090006EE0900079F02270
:10090E00E4F5937594FF5395F043960F90002A7477
:0B091E00FFF0A37402F0A374ABF02202
:09094C0090006EEFF0A3EDF02223
:1008D000900070EFF0A3EDF0A3EBF0A3E525F0A3FB
:1008E000E526F0A3E527F0A3E528F0A3E529F0220B
:06096700900078EFF02281
:1005E6004100000A4100290A41006D0A040E00007C
:1005F60000000114004600670000FFFF8FFFC10DD9
:10060600C105C108C101C10E60240005FF000AFF33
:10061600000AFF000AFF000AFF000AFF000AFF00A7
:100626000AFF000AFF000AFF000AFF000AFF000A8D
:100636006036002AFF000AFF000AFF0973FF000A5E
:10064600FF0973FF000AFF0973FF000AFF000AFF94
:10065600000AFF0973FF0973FF0973FF0973FF009F
:0A0666000AFF000AFF000AFF000A65
:01000A0022D3
:030973007F0022E0
:10079300438E805389F07BE07A28790178009008B2
:1007A300F01200CE1207DAEFF404F58A7BE07A2820
:1007B300790178009008F01200CE1207DAC3E49FA3
:1007C300FFE49EFE74019DFDE49CFC78081200BAD0
:0707D3008F8CD28CD2A92209
:03000B00020741A8
:04074100C0E0C0D084
:10074500D5080A75084C300D020514D20DA20372A6
:10075500045036150AE50A7030850C0AD207300AAE
:1007650017E50D6007150D438F01801D538FFEC2E0
:10077500B5D51615C20A8011050BE50BD3940640B5
:0907850008C203E5136002D2066C
:05078E00D0D0D0E032E4
:1006EE00300E47C20E9008F01200CE78101200BAEB
:1006FE008E1A8F1B900003E0FEA3E0FFE4FCFD7B4F
:10070E0019FAF9F812006BC006C007AE1AAF1BAB90
:10071E0007AA06E4F9F8D007D0061207DA78031212
:10072E0000BA900065EEF0A3EFF0900065E0FEA336
:02073E00E0FFDA
:010740002296
:09095500900067E0FEA3E0FF2220
:09095E00900067EEF0A3EFF02217
:10093B0090006BEEF0A3EFF0900069ECF0A3EDF0FC
:01094B002289
:03097600C2B422E6
:03003B0002039429
:10039400C0E0C083C082C0D075D000C004C005C016
:0303A40006C00789
:1003A70030DF04C2DF807D30DA04C2DA807630D9EC
:1003B7003DC2D9AFFBEFFEADEB7C00E42DFFEC3E79
:1003C70020000E900001F0A3EFF075DB11D2008042
:1003D70053FE900001E0FCA3E0FDC3EF9DFFEE9C00
:1003E700A3F0A3EFF075DB00C200D20E803630D841
:1003F70033C2D8900067E07002A3E06022B2B490E5
:100407000069E0FEA3E0F5EAEEF5FAA3E0FEA3E05B
:10041700FF90006AE02FF0900069E03EF08005C28F
:04042700B453DAFEF2
:10042B00D007D006D005D004D0D0D082D083D0E076
:01043B00328E
:06096D00120793D2AF2235
:10055B003004047F0180027F00200A047E018002A8
:10056B007E00EE5F6074E515C39509506830023666
:10057B00750D01E515131313541FAB17AA18A91901
:10058B00F58275830012003EFFE515540704FEEF5C
:10059B00A806088002C333D8FC30D7057516038034
:1005AB002F751601802AAB17AA18A91975F002E549
:1005BB0015A4F58285F08312003EF50DE51575F057
:1005CB0002A429F9EA35F0FA90000112003EF51663
:0A05DB000515D20A22C204438F1056
:0105E50022F3
:1001BE00900000E014F0701F740AF0D20590002930
:1001CE00E014F07012740AF0D20890006DE014F092
:1001DE007005740AF0D20190002AA3E0FAA3E0F9A8
:1001EE001200EA90002DA3E0FAA3E0F91200EA90C3
:1001FE000039A3E0FAA3E0F91200EA900045A3E06B
:10020E00FAA3E0F91200EA900054A3E0FAA3E0F991
:10021E001200EA90005DA3E0FAA3E0F91200EA9062
:10022E00004BA3E0FAA3E0F91200EAEF600C900095
:10023E001DA3E0FAA3E0F91200EA90004EA3E0FA43
:10024E00A3E0F91200EAEF600E900020A3E0FAA3FB
:10025E00E0F91200EAD20BE512D394004016D51243
:10026E003030090C900023A3E0FAA3E0F91200EA63
:10027E00D20C801D900051A3E0FAA3E0F91200EA1F
:10028E00EF600E900023A3E0FAA3E0F91200EAD289
:0D029E000C900005A3E0FAA3E0F90200EACD
:10043C0090003FA3E0FAA3E0F91200EA900042A377
:10044C00E0FAA3E0F91200EA900033A3E0FAA3E08B
:10045C00F91200EA900008A3E0FAA3E0F91200EA0E
:10046C00900030A3E0FAA3E0F91200EAEF600C90E0
:10047C000011A3E0FAA3E0F91200EA900036A3E021
:10048C00FAA3E0F91200EAEF600C900017A3E0FA6F
:10049C00A3E0F91200EA900048A3E0FAA3E0F912F5
:1004AC0000EAEF600C90001AA3E0FAA3E0F9120046
:1004BC00EA30060EC206900026A3E0FAA3E0F91279
:0304CC0000EA2221
:10081E0090000BA3E0FAA3E0F91200EA90003CA3CB
:10082E00E0FAA3E0F91200EAEF600C900014A3E0E6
:10083E00FAA3E0F91200EA900057A3E0FAA3E0F958
:0F084E001200EA90005AA3E0FAA3E0F90200EAD0
:10000E00AF11AE10AD0FAC0E9000601200DE90007E
:10001E0064E514F0E4F511F510F50FF50EF51490F6
:0B002E00000EA3E0FAA3E0F90200EAD4
:10085D00300705C20712055B300D05C20D1201BE32
:10086D00300505C20512043C300805C20812081EE9
:10087D00300105C20112000EE5112401F511E43518
:0E088D0010F510E4350FF50FE4350EF50E22D0
:100671008B228A238924EFB40C005070900684F8F1
:100681002828730206A80206AD0206B20206B702C6
:1006910006BC0206C10206C60206CB0206D002064D
:1006A100D50206DA0206DF90000580359000088049
:1006B1003090000B802B90000E802690001180213D
:1006C100900017801C900014801790001A801290DF
:1006D100001D800D90002080089000238003900071
:0D06E10026E522F0A3E523F0A3E524F02296
:070003007B017A0079602205
:030000000204CF28
:0C04CF00787FE4F6D8FD7581290205163F
:10003E00BB010CE58229F582E5833AF583E0225077
:10004E0006E92582F8E622BBFE06E92582F8E222C1
:0D005E00E58229F582E5833AF583E49322DB
:10006B00E88FF0A4CC8BF0A42CFCE98EF0A42CFC34
:10007B008AF0EDA42CFCEA8EF0A4CDA8F08BF0A4B2
:10008B002DCC3825F0FDE98FF0A42CCD35F0FCEB11
:10009B008EF0A4FEA9F0EB8FF0A4CFC5F02ECD39D6
:0F00AB00FEE43CFCEAA42DCE35F0FDE43CFC2243
:1007DA00C2D5E830E70FB2D5E4C39BFBE49AFAE44A
:1007EA0099F9E498F8EC30E717B2D512081012011B
:1007FA002CE4C39BFBE49AFAE499F9E498F88003A1
:10080A0012012C30D50DE4C39FFFE49EFEE49DFD4A
:04081A00E49CFC223C
:1000BA00E86010ECA2E713FCED13FDEE13FEEF135C
:0400CA00FFD8F02249
:1000CE00E493FC740193FD740293FE740393FF2278
:0C00DE00ECF0A3EDF0A3EEF0A3EFF02295
:0600EA008A838982E473A1
:1004DB0002089BE493A3F8E493A34003F68001F294
:1004EB0008DFF48029E493A3F85407240CC8C33322
:1004FB00C4540F4420C8834004F456800146F6DFF1
:10050B00E4800B01020408102040809005E6E47E95
:10051B00019360BCA3FF543F30E509541FFEE493E5
:10052B00A360010ECF54C025E060A840B8E493A3AC
:10053B00FAE493A3F8E493A3C8C582C8CAC583CAD7
:10054B00F0A3C8C582C8CAC583CADFE9DEE780BE8F
:010670000089
:1000F00075F008758200EF2FFFEE33FECD33CDCCC7
:1001000033CCC58233C5829BED9AEC99E582984049
:100110000CF582EE9BFEED9AFDEC99FC0FD5F0D626
:10012000E4CEFBE4CDFAE4CCF9A88222B800C1B950
:100130000059BA002DEC8BF084CFCECDFCE5F0CB8E
:10014000F97818EF2FFFEE33FEED33FDEC33FCEBC7
:1001500033FB10D703994004EB99FB0FD8E5E4F982
:10016000FA227818EF2FFFEE33FEED33FDEC33FC6F
:10017000C933C910D7059BE99A4007EC9BFCE99A63
:10018000F90FD8E0E4C9FAE4CCFB2275F010EF2FA8
:10019000FFEE33FEED33FDCC33CCC833C810D707A8
:1001A0009BEC9AE899400AED9BFDEC9AFCE899F8E3
:0E01B0000FD5F0DAE4CDFBE4CCFAE4C8F92276
:00000001FF
